{
    "_format": "hh-sol-artifact-1",
    "contractName": "PoetryByRobots",
    "sourceName": "contracts/PoetryByRobots.sol",
    "abi": [
        {
            "inputs": [],
            "stateMutability": "nonpayable",
            "type": "constructor"
        },
        {
            "anonymous": false,
            "inputs": [
                {
                    "indexed": true,
                    "internalType": "address",
                    "name": "owner",
                    "type": "address"
                },
                {
                    "indexed": true,
                    "internalType": "address",
                    "name": "approved",
                    "type": "address"
                },
                {
                    "indexed": true,
                    "internalType": "uint256",
                    "name": "tokenId",
                    "type": "uint256"
                }
            ],
            "name": "Approval",
            "type": "event"
        },
        {
            "anonymous": false,
            "inputs": [
                {
                    "indexed": true,
                    "internalType": "address",
                    "name": "owner",
                    "type": "address"
                },
                {
                    "indexed": true,
                    "internalType": "address",
                    "name": "operator",
                    "type": "address"
                },
                {
                    "indexed": false,
                    "internalType": "bool",
                    "name": "approved",
                    "type": "bool"
                }
            ],
            "name": "ApprovalForAll",
            "type": "event"
        },
        {
            "anonymous": false,
            "inputs": [
                {
                    "indexed": true,
                    "internalType": "address",
                    "name": "from",
                    "type": "address"
                },
                {
                    "indexed": true,
                    "internalType": "address",
                    "name": "to",
                    "type": "address"
                },
                {
                    "indexed": true,
                    "internalType": "uint256",
                    "name": "tokenId",
                    "type": "uint256"
                }
            ],
            "name": "Transfer",
            "type": "event"
        },
        {
            "inputs": [
                {
                    "internalType": "address",
                    "name": "to",
                    "type": "address"
                },
                {
                    "internalType": "uint256",
                    "name": "tokenId",
                    "type": "uint256"
                }
            ],
            "name": "approve",
            "outputs": [],
            "stateMutability": "nonpayable",
            "type": "function"
        },
        {
            "inputs": [
                {
                    "internalType": "address",
                    "name": "owner",
                    "type": "address"
                }
            ],
            "name": "balanceOf",
            "outputs": [
                {
                    "internalType": "uint256",
                    "name": "",
                    "type": "uint256"
                }
            ],
            "stateMutability": "view",
            "type": "function"
        },
        {
            "inputs": [],
            "name": "electricDream",
            "outputs": [],
            "stateMutability": "nonpayable",
            "type": "function"
        },
        {
            "inputs": [
                {
                    "internalType": "uint256",
                    "name": "tokenId",
                    "type": "uint256"
                }
            ],
            "name": "getApproved",
            "outputs": [
                {
                    "internalType": "address",
                    "name": "",
                    "type": "address"
                }
            ],
            "stateMutability": "view",
            "type": "function"
        },
        {
            "inputs": [
                {
                    "internalType": "address",
                    "name": "owner",
                    "type": "address"
                },
                {
                    "internalType": "address",
                    "name": "operator",
                    "type": "address"
                }
            ],
            "name": "isApprovedForAll",
            "outputs": [
                {
                    "internalType": "bool",
                    "name": "",
                    "type": "bool"
                }
            ],
            "stateMutability": "view",
            "type": "function"
        },
        {
            "inputs": [],
            "name": "name",
            "outputs": [
                {
                    "internalType": "string",
                    "name": "",
                    "type": "string"
                }
            ],
            "stateMutability": "view",
            "type": "function"
        },
        {
            "inputs": [
                {
                    "internalType": "uint256",
                    "name": "tokenId",
                    "type": "uint256"
                }
            ],
            "name": "ownerOf",
            "outputs": [
                {
                    "internalType": "address",
                    "name": "",
                    "type": "address"
                }
            ],
            "stateMutability": "view",
            "type": "function"
        },
        {
            "inputs": [
                {
                    "internalType": "address",
                    "name": "from",
                    "type": "address"
                },
                {
                    "internalType": "address",
                    "name": "to",
                    "type": "address"
                },
                {
                    "internalType": "uint256",
                    "name": "tokenId",
                    "type": "uint256"
                }
            ],
            "name": "safeTransferFrom",
            "outputs": [],
            "stateMutability": "nonpayable",
            "type": "function"
        },
        {
            "inputs": [
                {
                    "internalType": "address",
                    "name": "from",
                    "type": "address"
                },
                {
                    "internalType": "address",
                    "name": "to",
                    "type": "address"
                },
                {
                    "internalType": "uint256",
                    "name": "tokenId",
                    "type": "uint256"
                },
                {
                    "internalType": "bytes",
                    "name": "_data",
                    "type": "bytes"
                }
            ],
            "name": "safeTransferFrom",
            "outputs": [],
            "stateMutability": "nonpayable",
            "type": "function"
        },
        {
            "inputs": [
                {
                    "internalType": "address",
                    "name": "operator",
                    "type": "address"
                },
                {
                    "internalType": "bool",
                    "name": "approved",
                    "type": "bool"
                }
            ],
            "name": "setApprovalForAll",
            "outputs": [],
            "stateMutability": "nonpayable",
            "type": "function"
        },
        {
            "inputs": [
                {
                    "internalType": "bytes4",
                    "name": "interfaceId",
                    "type": "bytes4"
                }
            ],
            "name": "supportsInterface",
            "outputs": [
                {
                    "internalType": "bool",
                    "name": "",
                    "type": "bool"
                }
            ],
            "stateMutability": "view",
            "type": "function"
        },
        {
            "inputs": [],
            "name": "symbol",
            "outputs": [
                {
                    "internalType": "string",
                    "name": "",
                    "type": "string"
                }
            ],
            "stateMutability": "view",
            "type": "function"
        },
        {
            "inputs": [
                {
                    "internalType": "uint256",
                    "name": "tokenId",
                    "type": "uint256"
                }
            ],
            "name": "tokenURI",
            "outputs": [
                {
                    "internalType": "string",
                    "name": "",
                    "type": "string"
                }
            ],
            "stateMutability": "view",
            "type": "function"
        },
        {
            "inputs": [
                {
                    "internalType": "address",
                    "name": "from",
                    "type": "address"
                },
                {
                    "internalType": "address",
                    "name": "to",
                    "type": "address"
                },
                {
                    "internalType": "uint256",
                    "name": "tokenId",
                    "type": "uint256"
                }
            ],
            "name": "transferFrom",
            "outputs": [],
            "stateMutability": "nonpayable",
            "type": "function"
        }
    ],
    "bytecode": "0x60806040523480156200001157600080fd5b506040518060400160405280600e81526020017f506f657472794279526f626f74730000000000000000000000000000000000008152506040518060400160405280600381526020017f5042520000000000000000000000000000000000000000000000000000000000815250816000908051906020019062000096929190620001cf565b508060019080519060200190620000af929190620001cf565b505050620000fd6040518060400160405280601e81526020017f54686973206973206d79204e465420636f6e74726163742e20576f61682100008152506200010360201b62000ba81760201c565b620003ac565b620001a3816040516024016200011a9190620002c0565b6040516020818303038152906040527f41304fac000000000000000000000000000000000000000000000000000000007bffffffffffffffffffffffffffffffffffffffffffffffffffffffff19166020820180517bffffffffffffffffffffffffffffffffffffffffffffffffffffffff8381831617835250505050620001a660201b60201c565b50565b60008151905060006a636f6e736f6c652e6c6f679050602083016000808483855afa5050505050565b828054620001dd9062000336565b90600052602060002090601f0160209004810192826200020157600085556200024d565b82601f106200021c57805160ff19168380011785556200024d565b828001600101855582156200024d579182015b828111156200024c5782518255916020019190600101906200022f565b5b5090506200025c919062000260565b5090565b5b808211156200027b57600081600090555060010162000261565b5090565b60006200028c82620002e4565b620002988185620002ef565b9350620002aa81856020860162000300565b620002b5816200039b565b840191505092915050565b60006020820190508181036000830152620002dc81846200027f565b905092915050565b600081519050919050565b600082825260208201905092915050565b60005b838110156200032057808201518184015260208101905062000303565b8381111562000330576000848401525b50505050565b600060028204905060018216806200034f57607f821691505b602082108114156200036657620003656200036c565b5b50919050565b7f4e487b7100000000000000000000000000000000000000000000000000000000600052602260045260246000fd5b6000601f19601f8301169050919050565b612fb080620003bc6000396000f3fe608060405234801561001057600080fd5b50600436106100ea5760003560e01c806370a082311161008c578063a22cb46511610066578063a22cb46514610249578063b88d4fde14610265578063c87b56dd14610281578063e985e9c5146102b1576100ea565b806370a08231146101f1578063840f1bff1461022157806395d89b411461022b576100ea565b8063095ea7b3116100c8578063095ea7b31461016d57806323b872dd1461018957806342842e0e146101a55780636352211e146101c1576100ea565b806301ffc9a7146100ef57806306fdde031461011f578063081812fc1461013d575b600080fd5b610109600480360381019061010491906120c2565b6102e1565b60405161011691906128b7565b60405180910390f35b6101276103c3565b60405161013491906128d2565b60405180910390f35b61015760048036038101906101529190612114565b610455565b6040516101649190612850565b60405180910390f35b61018760048036038101906101829190612086565b6104da565b005b6101a3600480360381019061019e9190611f80565b6105f2565b005b6101bf60048036038101906101ba9190611f80565b610652565b005b6101db60048036038101906101d69190612114565b610672565b6040516101e89190612850565b60405180910390f35b61020b60048036038101906102069190611f1b565b610724565b6040516102189190612b24565b60405180910390f35b6102296107dc565b005b6102336108b8565b60405161024091906128d2565b60405180910390f35b610263600480360381019061025e919061204a565b61094a565b005b61027f600480360381019061027a9190611fcf565b610960565b005b61029b60048036038101906102969190612114565b6109c2565b6040516102a891906128d2565b60405180910390f35b6102cb60048036038101906102c69190611f44565b610b14565b6040516102d891906128b7565b60405180910390f35b60007f80ac58cd000000000000000000000000000000000000000000000000000000007bffffffffffffffffffffffffffffffffffffffffffffffffffffffff1916827bffffffffffffffffffffffffffffffffffffffffffffffffffffffff191614806103ac57507f5b5e139f000000000000000000000000000000000000000000000000000000007bffffffffffffffffffffffffffffffffffffffffffffffffffffffff1916827bffffffffffffffffffffffffffffffffffffffffffffffffffffffff1916145b806103bc57506103bb82610c41565b5b9050919050565b6060600080546103d290612d54565b80601f01602080910402602001604051908101604052809291908181526020018280546103fe90612d54565b801561044b5780601f106104205761010080835404028352916020019161044b565b820191906000526020600020905b81548152906001019060200180831161042e57829003601f168201915b5050505050905090565b600061046082610cab565b61049f576040517f08c379a000000000000000000000000000000000000000000000000000000000815260040161049690612a84565b60405180910390fd5b6004600083815260200190815260200160002060009054906101000a900473ffffffffffffffffffffffffffffffffffffffff169050919050565b60006104e582610672565b90508073ffffffffffffffffffffffffffffffffffffffff168373ffffffffffffffffffffffffffffffffffffffff161415610556576040517f08c379a000000000000000000000000000000000000000000000000000000000815260040161054d90612ae4565b60405180910390fd5b8073ffffffffffffffffffffffffffffffffffffffff16610575610d17565b73ffffffffffffffffffffffffffffffffffffffff1614806105a457506105a38161059e610d17565b610b14565b5b6105e3576040517f08c379a00000000000000000000000000000000000000000000000000000000081526004016105da906129c4565b60405180910390fd5b6105ed8383610d1f565b505050565b6106036105fd610d17565b82610dd8565b610642576040517f08c379a000000000000000000000000000000000000000000000000000000000815260040161063990612b04565b60405180910390fd5b61064d838383610eb6565b505050565b61066d83838360405180602001604052806000815250610960565b505050565b6000806002600084815260200190815260200160002060009054906101000a900473ffffffffffffffffffffffffffffffffffffffff169050600073ffffffffffffffffffffffffffffffffffffffff168173ffffffffffffffffffffffffffffffffffffffff16141561071b576040517f08c379a000000000000000000000000000000000000000000000000000000000815260040161071290612a04565b60405180910390fd5b80915050919050565b60008073ffffffffffffffffffffffffffffffffffffffff168273ffffffffffffffffffffffffffffffffffffffff161415610795576040517f08c379a000000000000000000000000000000000000000000000000000000000815260040161078c906129e4565b60405180910390fd5b600360008373ffffffffffffffffffffffffffffffffffffffff1673ffffffffffffffffffffffffffffffffffffffff168152602001908152602001600020549050919050565b60006107e86007611112565b90506107f43382611120565b6000610856604051806080016040528060518152602001612f2a6051913961081b8461113e565b6040518060400160405280600581526020017f2e6a736f6e00000000000000000000000000000000000000000000000000000081525061141d565b905061086181610ba8565b61086b828261144c565b61087560076114c0565b6108b46040518060400160405280600e81526020017f546865206e657874204e46543a20000000000000000000000000000000000000815250836114d6565b5050565b6060600180546108c790612d54565b80601f01602080910402602001604051908101604052809291908181526020018280546108f390612d54565b80156109405780601f1061091557610100808354040283529160200191610940565b820191906000526020600020905b81548152906001019060200180831161092357829003601f168201915b5050505050905090565b61095c610955610d17565b8383611572565b5050565b61097161096b610d17565b83610dd8565b6109b0576040517f08c379a00000000000000000000000000000000000000000000000000000000081526004016109a790612b04565b60405180910390fd5b6109bc848484846116df565b50505050565b60606109cd82610cab565b610a0c576040517f08c379a0000000000000000000000000000000000000000000000000000000008152600401610a0390612a64565b60405180910390fd5b6000600660008481526020019081526020016000208054610a2c90612d54565b80601f0160208091040260200160405190810160405280929190818152602001828054610a5890612d54565b8015610aa55780601f10610a7a57610100808354040283529160200191610aa5565b820191906000526020600020905b815481529060010190602001808311610a8857829003601f168201915b505050505090506000610ab661173b565b9050600081511415610acc578192505050610b0f565b600082511115610b01578082604051602001610ae99291906127fb565b60405160208183030381529060405292505050610b0f565b610b0a84611752565b925050505b919050565b6000600560008473ffffffffffffffffffffffffffffffffffffffff1673ffffffffffffffffffffffffffffffffffffffff16815260200190815260200160002060008373ffffffffffffffffffffffffffffffffffffffff1673ffffffffffffffffffffffffffffffffffffffff16815260200190815260200160002060009054906101000a900460ff16905092915050565b610c3e81604051602401610bbc91906128d2565b6040516020818303038152906040527f41304fac000000000000000000000000000000000000000000000000000000007bffffffffffffffffffffffffffffffffffffffffffffffffffffffff19166020820180517bffffffffffffffffffffffffffffffffffffffffffffffffffffffff83818316178352505050506117f9565b50565b60007f01ffc9a7000000000000000000000000000000000000000000000000000000007bffffffffffffffffffffffffffffffffffffffffffffffffffffffff1916827bffffffffffffffffffffffffffffffffffffffffffffffffffffffff1916149050919050565b60008073ffffffffffffffffffffffffffffffffffffffff166002600084815260200190815260200160002060009054906101000a900473ffffffffffffffffffffffffffffffffffffffff1673ffffffffffffffffffffffffffffffffffffffff1614159050919050565b600033905090565b816004600083815260200190815260200160002060006101000a81548173ffffffffffffffffffffffffffffffffffffffff021916908373ffffffffffffffffffffffffffffffffffffffff160217905550808273ffffffffffffffffffffffffffffffffffffffff16610d9283610672565b73ffffffffffffffffffffffffffffffffffffffff167f8c5be1e5ebec7d5bd14f71427d1e84f3dd0314c0f7b2291e5b200ac8c7c3b92560405160405180910390a45050565b6000610de382610cab565b610e22576040517f08c379a0000000000000000000000000000000000000000000000000000000008152600401610e19906129a4565b60405180910390fd5b6000610e2d83610672565b90508073ffffffffffffffffffffffffffffffffffffffff168473ffffffffffffffffffffffffffffffffffffffff161480610e9c57508373ffffffffffffffffffffffffffffffffffffffff16610e8484610455565b73ffffffffffffffffffffffffffffffffffffffff16145b80610ead5750610eac8185610b14565b5b91505092915050565b8273ffffffffffffffffffffffffffffffffffffffff16610ed682610672565b73ffffffffffffffffffffffffffffffffffffffff1614610f2c576040517f08c379a0000000000000000000000000000000000000000000000000000000008152600401610f2390612aa4565b60405180910390fd5b600073ffffffffffffffffffffffffffffffffffffffff168273ffffffffffffffffffffffffffffffffffffffff161415610f9c576040517f08c379a0000000000000000000000000000000000000000000000000000000008152600401610f9390612964565b60405180910390fd5b610fa7838383611822565b610fb2600082610d1f565b6001600360008573ffffffffffffffffffffffffffffffffffffffff1673ffffffffffffffffffffffffffffffffffffffff16815260200190815260200160002060008282546110029190612c6a565b925050819055506001600360008473ffffffffffffffffffffffffffffffffffffffff1673ffffffffffffffffffffffffffffffffffffffff16815260200190815260200160002060008282546110599190612be3565b92505081905550816002600083815260200190815260200160002060006101000a81548173ffffffffffffffffffffffffffffffffffffffff021916908373ffffffffffffffffffffffffffffffffffffffff160217905550808273ffffffffffffffffffffffffffffffffffffffff168473ffffffffffffffffffffffffffffffffffffffff167fddf252ad1be2c89b69c2b068fc378daa952ba7f163c4a11628f55a4df523b3ef60405160405180910390a4505050565b600081600001549050919050565b61113a828260405180602001604052806000815250611827565b5050565b60606000821415611186576040518060400160405280600181526020017f30000000000000000000000000000000000000000000000000000000000000008152509050611418565b60006064905060008167ffffffffffffffff8111156111ce577f4e487b7100000000000000000000000000000000000000000000000000000000600052604160045260246000fd5b6040519080825280601f01601f1916602001820160405280156112005781602001600182028036833780820191505090505b50905060005b600085146112b8576000600a8661121d9190612dcf565b9050600a8661122c9190612c39565b955080603061123b9190612be3565b60f81b83838061124a90612d86565b945081518110611283577f4e487b7100000000000000000000000000000000000000000000000000000000600052603260045260246000fd5b60200101907effffffffffffffffffffffffffffffffffffffffffffffffffffffffffffff1916908160001a90535050611206565b60006001826112c79190612be3565b67ffffffffffffffff811115611306577f4e487b7100000000000000000000000000000000000000000000000000000000600052604160045260246000fd5b6040519080825280601f01601f1916602001820160405280156113385781602001600182028036833780820191505090505b50905060005b82811161140f578381846113529190612c6a565b81518110611389577f4e487b7100000000000000000000000000000000000000000000000000000000600052603260045260246000fd5b602001015160f81c60f81b8282815181106113cd577f4e487b7100000000000000000000000000000000000000000000000000000000600052603260045260246000fd5b60200101907effffffffffffffffffffffffffffffffffffffffffffffffffffffffffffff1916908160001a905350808061140790612d86565b91505061133e565b50809450505050505b919050565b60608383836040516020016114349392919061281f565b60405160208183030381529060405290509392505050565b61145582610cab565b611494576040517f08c379a000000000000000000000000000000000000000000000000000000000815260040161148b90612a24565b60405180910390fd5b806006600084815260200190815260200160002090805190602001906114bb929190611da7565b505050565b6001816000016000828254019250508190555050565b61156e82826040516024016114ec9291906128f4565b6040516020818303038152906040527f9710a9d0000000000000000000000000000000000000000000000000000000007bffffffffffffffffffffffffffffffffffffffffffffffffffffffff19166020820180517bffffffffffffffffffffffffffffffffffffffffffffffffffffffff83818316178352505050506117f9565b5050565b8173ffffffffffffffffffffffffffffffffffffffff168373ffffffffffffffffffffffffffffffffffffffff1614156115e1576040517f08c379a00000000000000000000000000000000000000000000000000000000081526004016115d890612984565b60405180910390fd5b80600560008573ffffffffffffffffffffffffffffffffffffffff1673ffffffffffffffffffffffffffffffffffffffff16815260200190815260200160002060008473ffffffffffffffffffffffffffffffffffffffff1673ffffffffffffffffffffffffffffffffffffffff16815260200190815260200160002060006101000a81548160ff0219169083151502179055508173ffffffffffffffffffffffffffffffffffffffff168373ffffffffffffffffffffffffffffffffffffffff167f17307eab39ab6107e8899845ad3d59bd9653f200f220920489ca2b5937696c31836040516116d291906128b7565b60405180910390a3505050565b6116ea848484610eb6565b6116f684848484611882565b611735576040517f08c379a000000000000000000000000000000000000000000000000000000000815260040161172c90612924565b60405180910390fd5b50505050565b606060405180602001604052806000815250905090565b606061175d82610cab565b61179c576040517f08c379a000000000000000000000000000000000000000000000000000000000815260040161179390612ac4565b60405180910390fd5b60006117a661173b565b905060008151116117c657604051806020016040528060008152506117f1565b806117d084611a19565b6040516020016117e19291906127fb565b6040516020818303038152906040525b915050919050565b60008151905060006a636f6e736f6c652e6c6f679050602083016000808483855afa5050505050565b505050565b6118318383611bc6565b61183e6000848484611882565b61187d576040517f08c379a000000000000000000000000000000000000000000000000000000000815260040161187490612924565b60405180910390fd5b505050565b60006118a38473ffffffffffffffffffffffffffffffffffffffff16611d94565b15611a0c578373ffffffffffffffffffffffffffffffffffffffff1663150b7a026118cc610d17565b8786866040518563ffffffff1660e01b81526004016118ee949392919061286b565b602060405180830381600087803b15801561190857600080fd5b505af192505050801561193957506040513d601f19601f8201168201806040525081019061193691906120eb565b60015b6119bc573d8060008114611969576040519150601f19603f3d011682016040523d82523d6000602084013e61196e565b606091505b506000815114156119b4576040517f08c379a00000000000000000000000000000000000000000000000000000000081526004016119ab90612924565b60405180910390fd5b805181602001fd5b63150b7a0260e01b7bffffffffffffffffffffffffffffffffffffffffffffffffffffffff1916817bffffffffffffffffffffffffffffffffffffffffffffffffffffffff191614915050611a11565b600190505b949350505050565b60606000821415611a61576040518060400160405280600181526020017f30000000000000000000000000000000000000000000000000000000000000008152509050611bc1565b600082905060005b60008214611a93578080611a7c90612d86565b915050600a82611a8c9190612c39565b9150611a69565b60008167ffffffffffffffff811115611ad5577f4e487b7100000000000000000000000000000000000000000000000000000000600052604160045260246000fd5b6040519080825280601f01601f191660200182016040528015611b075781602001600182028036833780820191505090505b5090505b60008514611bba57600182611b209190612c6a565b9150600a85611b2f9190612dcf565b6030611b3b9190612be3565b60f81b818381518110611b77577f4e487b7100000000000000000000000000000000000000000000000000000000600052603260045260246000fd5b60200101907effffffffffffffffffffffffffffffffffffffffffffffffffffffffffffff1916908160001a905350600a85611bb39190612c39565b9450611b0b565b8093505050505b919050565b600073ffffffffffffffffffffffffffffffffffffffff168273ffffffffffffffffffffffffffffffffffffffff161415611c36576040517f08c379a0000000000000000000000000000000000000000000000000000000008152600401611c2d90612a44565b60405180910390fd5b611c3f81610cab565b15611c7f576040517f08c379a0000000000000000000000000000000000000000000000000000000008152600401611c7690612944565b60405180910390fd5b611c8b60008383611822565b6001600360008473ffffffffffffffffffffffffffffffffffffffff1673ffffffffffffffffffffffffffffffffffffffff1681526020019081526020016000206000828254611cdb9190612be3565b92505081905550816002600083815260200190815260200160002060006101000a81548173ffffffffffffffffffffffffffffffffffffffff021916908373ffffffffffffffffffffffffffffffffffffffff160217905550808273ffffffffffffffffffffffffffffffffffffffff16600073ffffffffffffffffffffffffffffffffffffffff167fddf252ad1be2c89b69c2b068fc378daa952ba7f163c4a11628f55a4df523b3ef60405160405180910390a45050565b600080823b905060008111915050919050565b828054611db390612d54565b90600052602060002090601f016020900481019282611dd55760008555611e1c565b82601f10611dee57805160ff1916838001178555611e1c565b82800160010185558215611e1c579182015b82811115611e1b578251825591602001919060010190611e00565b5b509050611e299190611e2d565b5090565b5b80821115611e46576000816000905550600101611e2e565b5090565b6000611e5d611e5884612b70565b612b3f565b905082815260208101848484011115611e7557600080fd5b611e80848285612d12565b509392505050565b600081359050611e9781612ecd565b92915050565b600081359050611eac81612ee4565b92915050565b600081359050611ec181612efb565b92915050565b600081519050611ed681612efb565b92915050565b600082601f830112611eed57600080fd5b8135611efd848260208601611e4a565b91505092915050565b600081359050611f1581612f12565b92915050565b600060208284031215611f2d57600080fd5b6000611f3b84828501611e88565b91505092915050565b60008060408385031215611f5757600080fd5b6000611f6585828601611e88565b9250506020611f7685828601611e88565b9150509250929050565b600080600060608486031215611f9557600080fd5b6000611fa386828701611e88565b9350506020611fb486828701611e88565b9250506040611fc586828701611f06565b9150509250925092565b60008060008060808587031215611fe557600080fd5b6000611ff387828801611e88565b945050602061200487828801611e88565b935050604061201587828801611f06565b925050606085013567ffffffffffffffff81111561203257600080fd5b61203e87828801611edc565b91505092959194509250565b6000806040838503121561205d57600080fd5b600061206b85828601611e88565b925050602061207c85828601611e9d565b9150509250929050565b6000806040838503121561209957600080fd5b60006120a785828601611e88565b92505060206120b885828601611f06565b9150509250929050565b6000602082840312156120d457600080fd5b60006120e284828501611eb2565b91505092915050565b6000602082840312156120fd57600080fd5b600061210b84828501611ec7565b91505092915050565b60006020828403121561212657600080fd5b600061213484828501611f06565b91505092915050565b61214681612c9e565b82525050565b61215581612cb0565b82525050565b600061216682612ba0565b6121708185612bb6565b9350612180818560208601612d21565b61218981612ebc565b840191505092915050565b600061219f82612bab565b6121a98185612bc7565b93506121b9818560208601612d21565b6121c281612ebc565b840191505092915050565b60006121d882612bab565b6121e28185612bd8565b93506121f2818560208601612d21565b80840191505092915050565b600061220b603283612bc7565b91507f4552433732313a207472616e7366657220746f206e6f6e20455243373231526560008301527f63656976657220696d706c656d656e74657200000000000000000000000000006020830152604082019050919050565b6000612271601c83612bc7565b91507f4552433732313a20746f6b656e20616c7265616479206d696e746564000000006000830152602082019050919050565b60006122b1602483612bc7565b91507f4552433732313a207472616e7366657220746f20746865207a65726f2061646460008301527f72657373000000000000000000000000000000000000000000000000000000006020830152604082019050919050565b6000612317601983612bc7565b91507f4552433732313a20617070726f766520746f2063616c6c6572000000000000006000830152602082019050919050565b6000612357602c83612bc7565b91507f4552433732313a206f70657261746f7220717565727920666f72206e6f6e657860008301527f697374656e7420746f6b656e00000000000000000000000000000000000000006020830152604082019050919050565b60006123bd603883612bc7565b91507f4552433732313a20617070726f76652063616c6c6572206973206e6f74206f7760008301527f6e6572206e6f7220617070726f76656420666f7220616c6c00000000000000006020830152604082019050919050565b6000612423602a83612bc7565b91507f4552433732313a2062616c616e636520717565727920666f7220746865207a6560008301527f726f2061646472657373000000000000000000000000000000000000000000006020830152604082019050919050565b6000612489602983612bc7565b91507f4552433732313a206f776e657220717565727920666f72206e6f6e657869737460008301527f656e7420746f6b656e00000000000000000000000000000000000000000000006020830152604082019050919050565b60006124ef602e83612bc7565b91507f45524337323155524953746f726167653a2055524920736574206f66206e6f6e60008301527f6578697374656e7420746f6b656e0000000000000000000000000000000000006020830152604082019050919050565b6000612555602083612bc7565b91507f4552433732313a206d696e7420746f20746865207a65726f20616464726573736000830152602082019050919050565b6000612595603183612bc7565b91507f45524337323155524953746f726167653a2055524920717565727920666f722060008301527f6e6f6e6578697374656e7420746f6b656e0000000000000000000000000000006020830152604082019050919050565b60006125fb602c83612bc7565b91507f4552433732313a20617070726f76656420717565727920666f72206e6f6e657860008301527f697374656e7420746f6b656e00000000000000000000000000000000000000006020830152604082019050919050565b6000612661602983612bc7565b91507f4552433732313a207472616e73666572206f6620746f6b656e2074686174206960008301527f73206e6f74206f776e00000000000000000000000000000000000000000000006020830152604082019050919050565b60006126c7602f83612bc7565b91507f4552433732314d657461646174613a2055524920717565727920666f72206e6f60008301527f6e6578697374656e7420746f6b656e00000000000000000000000000000000006020830152604082019050919050565b600061272d602183612bc7565b91507f4552433732313a20617070726f76616c20746f2063757272656e74206f776e6560008301527f72000000000000000000000000000000000000000000000000000000000000006020830152604082019050919050565b6000612793603183612bc7565b91507f4552433732313a207472616e736665722063616c6c6572206973206e6f74206f60008301527f776e6572206e6f7220617070726f7665640000000000000000000000000000006020830152604082019050919050565b6127f581612d08565b82525050565b600061280782856121cd565b915061281382846121cd565b91508190509392505050565b600061282b82866121cd565b915061283782856121cd565b915061284382846121cd565b9150819050949350505050565b6000602082019050612865600083018461213d565b92915050565b6000608082019050612880600083018761213d565b61288d602083018661213d565b61289a60408301856127ec565b81810360608301526128ac818461215b565b905095945050505050565b60006020820190506128cc600083018461214c565b92915050565b600060208201905081810360008301526128ec8184612194565b905092915050565b6000604082019050818103600083015261290e8185612194565b905061291d60208301846127ec565b9392505050565b6000602082019050818103600083015261293d816121fe565b9050919050565b6000602082019050818103600083015261295d81612264565b9050919050565b6000602082019050818103600083015261297d816122a4565b9050919050565b6000602082019050818103600083015261299d8161230a565b9050919050565b600060208201905081810360008301526129bd8161234a565b9050919050565b600060208201905081810360008301526129dd816123b0565b9050919050565b600060208201905081810360008301526129fd81612416565b9050919050565b60006020820190508181036000830152612a1d8161247c565b9050919050565b60006020820190508181036000830152612a3d816124e2565b9050919050565b60006020820190508181036000830152612a5d81612548565b9050919050565b60006020820190508181036000830152612a7d81612588565b9050919050565b60006020820190508181036000830152612a9d816125ee565b9050919050565b60006020820190508181036000830152612abd81612654565b9050919050565b60006020820190508181036000830152612add816126ba565b9050919050565b60006020820190508181036000830152612afd81612720565b9050919050565b60006020820190508181036000830152612b1d81612786565b9050919050565b6000602082019050612b3960008301846127ec565b92915050565b6000604051905081810181811067ffffffffffffffff82111715612b6657612b65612e8d565b5b8060405250919050565b600067ffffffffffffffff821115612b8b57612b8a612e8d565b5b601f19601f8301169050602081019050919050565b600081519050919050565b600081519050919050565b600082825260208201905092915050565b600082825260208201905092915050565b600081905092915050565b6000612bee82612d08565b9150612bf983612d08565b9250827fffffffffffffffffffffffffffffffffffffffffffffffffffffffffffffffff03821115612c2e57612c2d612e00565b5b828201905092915050565b6000612c4482612d08565b9150612c4f83612d08565b925082612c5f57612c5e612e2f565b5b828204905092915050565b6000612c7582612d08565b9150612c8083612d08565b925082821015612c9357612c92612e00565b5b828203905092915050565b6000612ca982612ce8565b9050919050565b60008115159050919050565b60007fffffffff0000000000000000000000000000000000000000000000000000000082169050919050565b600073ffffffffffffffffffffffffffffffffffffffff82169050919050565b6000819050919050565b82818337600083830152505050565b60005b83811015612d3f578082015181840152602081019050612d24565b83811115612d4e576000848401525b50505050565b60006002820490506001821680612d6c57607f821691505b60208210811415612d8057612d7f612e5e565b5b50919050565b6000612d9182612d08565b91507fffffffffffffffffffffffffffffffffffffffffffffffffffffffffffffffff821415612dc457612dc3612e00565b5b600182019050919050565b6000612dda82612d08565b9150612de583612d08565b925082612df557612df4612e2f565b5b828206905092915050565b7f4e487b7100000000000000000000000000000000000000000000000000000000600052601160045260246000fd5b7f4e487b7100000000000000000000000000000000000000000000000000000000600052601260045260246000fd5b7f4e487b7100000000000000000000000000000000000000000000000000000000600052602260045260246000fd5b7f4e487b7100000000000000000000000000000000000000000000000000000000600052604160045260246000fd5b6000601f19601f8301169050919050565b612ed681612c9e565b8114612ee157600080fd5b50565b612eed81612cb0565b8114612ef857600080fd5b50565b612f0481612cbc565b8114612f0f57600080fd5b50565b612f1b81612d08565b8114612f2657600080fd5b5056fe68747470733a2f2f676174657761792e70696e6174612e636c6f75642f697066732f516d53693165583951413545503550564b37636d524e6e44503463656470557876374165434858737058727169452fa26469706673582212206f7c325f3f21cf05144acfc6ad0322cd177de2702d2c02d70b8e8384cbd3bb4364736f6c63430008000033",
    "linkReferences": {},
    "deployedLinkReferences": {}
}